{
  "contractName": "MoneySafe",
  "abi": [
    {
      "inputs": [],
      "stateMutability": "nonpayable",
      "type": "constructor"
    },
    {
      "inputs": [
        {
          "internalType": "uint256",
          "name": "_timeRegistered",
          "type": "uint256"
        }
      ],
      "name": "AlreadyRegistered",
      "type": "error"
    },
    {
      "inputs": [
        {
          "internalType": "uint256",
          "name": "_balance",
          "type": "uint256"
        },
        {
          "internalType": "uint256",
          "name": "_amountRequested",
          "type": "uint256"
        }
      ],
      "name": "InsufficientFunds",
      "type": "error"
    },
    {
      "inputs": [],
      "name": "NotYetRegistered",
      "type": "error"
    },
    {
      "inputs": [
        {
          "internalType": "uint256",
          "name": "_duration",
          "type": "uint256"
        },
        {
          "internalType": "uint256",
          "name": "_timeLeft",
          "type": "uint256"
        }
      ],
      "name": "PrematureWithdrawal",
      "type": "error"
    },
    {
      "inputs": [
        {
          "internalType": "string",
          "name": "_msg",
          "type": "string"
        }
      ],
      "name": "ZeroException",
      "type": "error"
    },
    {
      "anonymous": false,
      "inputs": [
        {
          "indexed": true,
          "internalType": "address",
          "name": "_addr",
          "type": "address"
        }
      ],
      "name": "AccountRegistration",
      "type": "event"
    },
    {
      "anonymous": false,
      "inputs": [
        {
          "indexed": false,
          "internalType": "uint256",
          "name": "_increase",
          "type": "uint256"
        },
        {
          "indexed": false,
          "internalType": "uint256",
          "name": "_total",
          "type": "uint256"
        }
      ],
      "name": "DurationIncrease",
      "type": "event"
    },
    {
      "anonymous": false,
      "inputs": [
        {
          "indexed": true,
          "internalType": "address",
          "name": "_addr",
          "type": "address"
        },
        {
          "indexed": false,
          "internalType": "uint256",
          "name": "_amt",
          "type": "uint256"
        }
      ],
      "name": "FundDeposit",
      "type": "event"
    },
    {
      "anonymous": false,
      "inputs": [
        {
          "indexed": true,
          "internalType": "address",
          "name": "_addr",
          "type": "address"
        },
        {
          "indexed": false,
          "internalType": "uint256",
          "name": "_amt",
          "type": "uint256"
        }
      ],
      "name": "Withdraw",
      "type": "event"
    },
    {
      "stateMutability": "payable",
      "type": "fallback",
      "payable": true
    },
    {
      "inputs": [
        {
          "internalType": "uint256",
          "name": "_days",
          "type": "uint256"
        }
      ],
      "name": "register",
      "outputs": [],
      "stateMutability": "nonpayable",
      "type": "function"
    },
    {
      "inputs": [],
      "name": "save",
      "outputs": [],
      "stateMutability": "payable",
      "type": "function",
      "payable": true
    },
    {
      "inputs": [],
      "name": "getDepositsDetails",
      "outputs": [
        {
          "components": [
            {
              "internalType": "uint256",
              "name": "timeDeposited",
              "type": "uint256"
            },
            {
              "internalType": "uint256",
              "name": "amount",
              "type": "uint256"
            }
          ],
          "internalType": "struct IMoneySafe.DepositDetail[]",
          "name": "",
          "type": "tuple[]"
        }
      ],
      "stateMutability": "view",
      "type": "function",
      "constant": true
    },
    {
      "inputs": [],
      "name": "timeRegistered",
      "outputs": [
        {
          "internalType": "uint256",
          "name": "",
          "type": "uint256"
        }
      ],
      "stateMutability": "view",
      "type": "function",
      "constant": true
    },
    {
      "inputs": [
        {
          "internalType": "uint256",
          "name": "_days",
          "type": "uint256"
        }
      ],
      "name": "increaseDuration",
      "outputs": [],
      "stateMutability": "nonpayable",
      "type": "function"
    },
    {
      "inputs": [],
      "name": "timeLeft",
      "outputs": [
        {
          "internalType": "uint256",
          "name": "",
          "type": "uint256"
        }
      ],
      "stateMutability": "view",
      "type": "function",
      "constant": true
    },
    {
      "inputs": [],
      "name": "balance",
      "outputs": [
        {
          "internalType": "uint256",
          "name": "",
          "type": "uint256"
        }
      ],
      "stateMutability": "view",
      "type": "function",
      "constant": true
    },
    {
      "inputs": [
        {
          "internalType": "uint256",
          "name": "_amount",
          "type": "uint256"
        }
      ],
      "name": "withdraw",
      "outputs": [],
      "stateMutability": "nonpayable",
      "type": "function"
    }
  ],
  "bytecode": "0x608060405234801561001057600080fd5b50336000806101000a81548173ffffffffffffffffffffffffffffffffffffffff021916908373ffffffffffffffffffffffffffffffffffffffff16021790555061123a806100606000396000f3fe60806040526004361061009c576000357c010000000000000000000000000000000000000000000000000000000090048063a66cd4711161006b578063a66cd47114610130578063b69ef8a81461015b578063b8eb115e14610186578063f207564e146101af5761009d565b80631300a6d1146100a75780632e1a7d4d146100d257806342dad49e146100fb578063625d123e146101055761009d565b5b6100a56101d8565b005b3480156100b357600080fd5b506100bc610459565b6040516100c99190610ee5565b60405180910390f35b3480156100de57600080fd5b506100f960048036038101906100f49190610f31565b6105b8565b005b6101036101d8565b005b34801561011157600080fd5b5061011a61091f565b6040516101279190610ee5565b60405180910390f35b34801561013c57600080fd5b50610145610a13565b604051610152919061104b565b60405180910390f35b34801561016757600080fd5b50610170610b6e565b60405161017d9190610ee5565b60405180910390f35b34801561019257600080fd5b506101ad60048036038101906101a89190610f31565b610bb8565b005b3480156101bb57600080fd5b506101d660048036038101906101d19190610f31565b610d45565b005b6000600160003373ffffffffffffffffffffffffffffffffffffffff1673ffffffffffffffffffffffffffffffffffffffff168152602001908152602001600020604051806060016040529081600082015481526020016001820154815260200160028201548152505090506000816040015103610282576040517fe7744ece00000000000000000000000000000000000000000000000000000000815260040160405180910390fd5b60013410156102c6576040517f03b6cead0000000000000000000000000000000000000000000000000000000081526004016102bd906110ca565b60405180910390fd5b61031c34600160003373ffffffffffffffffffffffffffffffffffffffff1673ffffffffffffffffffffffffffffffffffffffff168152602001908152602001600020600001546103179190611119565b610e18565b34600160003373ffffffffffffffffffffffffffffffffffffffff1673ffffffffffffffffffffffffffffffffffffffff168152602001908152602001600020600001600082825461036e9190611119565b92505081905550600260003373ffffffffffffffffffffffffffffffffffffffff1673ffffffffffffffffffffffffffffffffffffffff1681526020019081526020016000206040518060400160405280428152602001348152509080600181540180825580915050600190039060005260206000209060020201600090919091909150600082015181600001556020820151816001015550503373ffffffffffffffffffffffffffffffffffffffff167f04d1e3db499c88d526b5839da3d76fbdda6fd7310b9aa71a624f2002ef73f95f3460405161044e9190610ee5565b60405180910390a250565b600080600160003373ffffffffffffffffffffffffffffffffffffffff1673ffffffffffffffffffffffffffffffffffffffff168152602001908152602001600020604051806060016040529081600082015481526020016001820154815260200160028201548152505090506000816040015103610504576040517fe7744ece00000000000000000000000000000000000000000000000000000000815260040160405180910390fd5b6000600160003373ffffffffffffffffffffffffffffffffffffffff1673ffffffffffffffffffffffffffffffffffffffff16815260200190815260200160002060405180606001604052908160008201548152602001600182015481526020016002820154815250509050600061057f8260200151610e47565b826040015161058e9190611119565b9050804211156105a3576000935050506105b4565b42816105af919061114d565b935050505b5090565b6000600160003373ffffffffffffffffffffffffffffffffffffffff1673ffffffffffffffffffffffffffffffffffffffff168152602001908152602001600020604051806060016040529081600082015481526020016001820154815260200160028201548152505090506000816040015103610662576040517fe7744ece00000000000000000000000000000000000000000000000000000000815260040160405180910390fd5b6000600160003373ffffffffffffffffffffffffffffffffffffffff1673ffffffffffffffffffffffffffffffffffffffff1681526020019081526020016000206040518060600160405290816000820154815260200160018201548152602001600282015481525050905060006106d8610459565b90506000811115610726578160200151816040517fcf4bd79f00000000000000000000000000000000000000000000000000000000815260040161071d929190611181565b60405180910390fd5b8382600001511015610775578160000151846040517f03eb8b5400000000000000000000000000000000000000000000000000000000815260040161076c929190611181565b60405180910390fd5b8160000151840361082a57600160003373ffffffffffffffffffffffffffffffffffffffff1673ffffffffffffffffffffffffffffffffffffffff168152602001908152602001600020600080820160009055600182016000905560028201600090555050600260003373ffffffffffffffffffffffffffffffffffffffff1673ffffffffffffffffffffffffffffffffffffffff16815260200190815260200160002060006108259190610e81565b610884565b83600160003373ffffffffffffffffffffffffffffffffffffffff1673ffffffffffffffffffffffffffffffffffffffff168152602001908152602001600020600001600082825461087c919061114d565b925050819055505b3373ffffffffffffffffffffffffffffffffffffffff166108fc859081150290604051600060405180830381858888f193505050501580156108ca573d6000803e3d6000fd5b503373ffffffffffffffffffffffffffffffffffffffff167f884edad9ce6fa2440d8a54cc123490eb96d2768479d49ff9c7366125a9424364856040516109119190610ee5565b60405180910390a250505050565b600080600160003373ffffffffffffffffffffffffffffffffffffffff1673ffffffffffffffffffffffffffffffffffffffff1681526020019081526020016000206040518060600160405290816000820154815260200160018201548152602001600282015481525050905060008160400151036109ca576040517fe7744ece00000000000000000000000000000000000000000000000000000000815260040160405180910390fd5b600160003373ffffffffffffffffffffffffffffffffffffffff1673ffffffffffffffffffffffffffffffffffffffff1681526020019081526020016000206002015491505090565b60606000600160003373ffffffffffffffffffffffffffffffffffffffff1673ffffffffffffffffffffffffffffffffffffffff168152602001908152602001600020604051806060016040529081600082015481526020016001820154815260200160028201548152505090506000816040015103610abf576040517fe7744ece00000000000000000000000000000000000000000000000000000000815260040160405180910390fd5b600260003373ffffffffffffffffffffffffffffffffffffffff1673ffffffffffffffffffffffffffffffffffffffff168152602001908152602001600020805480602002602001604051908101604052809291908181526020016000905b82821015610b6457838290600052602060002090600202016040518060400160405290816000820154815260200160018201548152505081526020019060010190610b1e565b5050505091505090565b6000600160003373ffffffffffffffffffffffffffffffffffffffff1673ffffffffffffffffffffffffffffffffffffffff16815260200190815260200160002060000154905090565b6000600160003373ffffffffffffffffffffffffffffffffffffffff1673ffffffffffffffffffffffffffffffffffffffff168152602001908152602001600020604051806060016040529081600082015481526020016001820154815260200160028201548152505090506000816040015103610c62576040517fe7744ece00000000000000000000000000000000000000000000000000000000815260040160405180910390fd5b81610c6c81610e18565b82600160003373ffffffffffffffffffffffffffffffffffffffff1673ffffffffffffffffffffffffffffffffffffffff1681526020019081526020016000206001016000828254610cbe9190611119565b925050819055507f226e6b1e747731f50134f4617de3dad40316c3f353a85c7329f9f899834aac7383600160003373ffffffffffffffffffffffffffffffffffffffff1673ffffffffffffffffffffffffffffffffffffffff16815260200190815260200160002060010154604051610d38929190611181565b60405180910390a1505050565b80610d4f81610e18565b600042905060405180606001604052806000815260200184815260200182815250600160003373ffffffffffffffffffffffffffffffffffffffff1673ffffffffffffffffffffffffffffffffffffffff1681526020019081526020016000206000820151816000015560208201518160010155604082015181600201559050503373ffffffffffffffffffffffffffffffffffffffff167ffdc8b4ad9bb93f3ee549b92935c795bc14ab7d00dc9659e5f29e51174e147dcf60405160405180910390a2505050565b807fffffffffffffffffffffffffffffffffffffffffffffffffffffffffffffffff11610e4457600080fd5b50565b60006103e8603c80601885610e5c91906111aa565b610e6691906111aa565b610e7091906111aa565b610e7a91906111aa565b9050919050565b5080546000825560020290600052602060002090810190610ea29190610ea5565b50565b5b80821115610ec857600080820160009055600182016000905550600201610ea6565b5090565b6000819050919050565b610edf81610ecc565b82525050565b6000602082019050610efa6000830184610ed6565b92915050565b600080fd5b610f0e81610ecc565b8114610f1957600080fd5b50565b600081359050610f2b81610f05565b92915050565b600060208284031215610f4757610f46610f00565b5b6000610f5584828501610f1c565b91505092915050565b600081519050919050565b600082825260208201905092915050565b6000819050602082019050919050565b610f9381610ecc565b82525050565b604082016000820151610faf6000850182610f8a565b506020820151610fc26020850182610f8a565b50505050565b6000610fd48383610f99565b60408301905092915050565b6000602082019050919050565b6000610ff882610f5e565b6110028185610f69565b935061100d83610f7a565b8060005b8381101561103e5781516110258882610fc8565b975061103083610fe0565b925050600181019050611011565b5085935050505092915050565b600060208201905081810360008301526110658184610fed565b905092915050565b600082825260208201905092915050565b7f6d73672e76616c75652063616e6e6f74206265207a65726f0000000000000000600082015250565b60006110b460188361106d565b91506110bf8261107e565b602082019050919050565b600060208201905081810360008301526110e3816110a7565b9050919050565b7f4e487b7100000000000000000000000000000000000000000000000000000000600052601160045260246000fd5b600061112482610ecc565b915061112f83610ecc565b9250828201905080821115611147576111466110ea565b5b92915050565b600061115882610ecc565b915061116383610ecc565b925082820390508181111561117b5761117a6110ea565b5b92915050565b60006040820190506111966000830185610ed6565b6111a36020830184610ed6565b9392505050565b60006111b582610ecc565b91506111c083610ecc565b9250817fffffffffffffffffffffffffffffffffffffffffffffffffffffffffffffffff04831182151516156111f9576111f86110ea565b5b82820290509291505056fea2646970667358221220ac27f02bfb84aeb5f7f92586fb1e52555096bb4473df216aeec46184dce33d1064736f6c63430008100033",
  "immutableReferences": {},
  "source": "// SPDX-License-Identifier: GPL-3.0\npragma solidity ^0.8.16;\n\nimport \"./IMoneySafe.sol\";\nimport \"./TimeUtil.sol\";\n\n/**\n * @title MoneySafe\n * @author Edicha Joshua <mredichaj@gmail.com>\n * @notice Save your funds for a period of time and be able to withdraw after the period has elapsed. Fully autonomous\n */\n\ncontract MoneySafe is IMoneySafe {\n    address private _developer; /// @notice developer's address\n\n    /// @notice accounts\n    mapping(address => Account) private _accounts;\n\n    /// @notice deposit history\n    mapping(address => DepositDetail[]) private _depositHistory;\n\n    using TimeUtil for uint256; // use TimeUtil to make time calculations\n\n    /**\n     * @dev checks if msg.value is 0\n     */\n    modifier notZeroAmount {\n        if(msg.value < 1) revert ZeroException(\"msg.value cannot be zero\");\n        _;\n    }\n\n    /// @dev ensure `_value` isn't greater than max allowable value for uint256\n    modifier valueAllowed(uint256 _value) {\n        _ensureValueDoesNotOverflow(_value);\n        _;\n    }\n\n    /// @dev ensure that msg.sender cannot update his account by trying to re-register\n    modifier notYetRegistered {\n        Account memory acct = _accounts[msg.sender]; // retrieve account details\n\n        // ensure msg.sender doesn't own an account yet\n        if(acct.timeRegistered > 0) revert AlreadyRegistered(acct.timeRegistered);\n\n        _; // continue execution\n    }\n\n    modifier alreadyRegistered {\n        Account memory acct = _accounts[msg.sender]; // retrieve account details\n\n        // ensure msg.sender doesn't own an account yet\n        if(acct.timeRegistered == 0) revert NotYetRegistered();\n\n        _; // continue execution\n    }\n\n    constructor() {\n        _developer = msg.sender;\n    }\n\n    /**\n     * @notice register an account\n     * @param _days duration in days\n     */\n    function register(uint256 _days) public valueAllowed(_days) {\n\n        uint256 t = block.timestamp;\n\n        // add account to _accounts\n        _accounts[msg.sender] = Account({\n            balance: 0,\n            duration: _days,\n            timeRegistered: t\n        });\n\n        emit AccountRegistration(msg.sender); // event event\n    }\n\n    fallback() external payable {\n        save();\n    }\n\n    /**\n     * @notice deposit amount into account\n     * @dev to use this function, you must be registered and msg.value must not be zero\n     */\n    function save() public payable alreadyRegistered notZeroAmount {\n\n        _ensureValueDoesNotOverflow(_accounts[msg.sender].balance + msg.value); // overflow check\n\n        _accounts[msg.sender].balance += msg.value; // update balance\n\n        _depositHistory[msg.sender].push(DepositDetail({\n            amount: msg.value,\n            timeDeposited: block.timestamp\n        })); // save deposit to deposit history\n\n        emit FundDeposit(msg.sender, msg.value); // emit event\n    }\n\n    /// @notice retrieve deposit history\n    /// @return array of all individual deposit detail\n    function getDepositsDetails() public view alreadyRegistered returns (DepositDetail[] memory) {\n        return _depositHistory[msg.sender]; /// return deposit history for `msg.sender`\n    }\n\n    /// @notice get the time of registration\n    /// @return the timestamp in milliseconds\n    function timeRegistered() public view alreadyRegistered returns (uint256) {\n        return _accounts[msg.sender].timeRegistered;\n    }\n\n    /**\n     * @notice increase the duration\n     * @param _days the number of days to be added\n     */\n    function increaseDuration(uint256 _days) public alreadyRegistered valueAllowed(_days) {\n\n        _accounts[msg.sender].duration += _days; // increase\n        \n        emit DurationIncrease(_days, _accounts[msg.sender].duration); // emit event\n    }\n\n    /**\n     * @notice get the time left before the account can withdraw\n     * @return the time left. returns 0 if the time has elapsed else return remaining time in milliseconds\n     */\n    function timeLeft() public alreadyRegistered view returns (uint256) {\n        Account memory acct = _accounts[msg.sender]; // get account\n        uint256 actualDurationInMilliseconds = acct.timeRegistered + acct.duration.toMilliSeconds();\n\n        if(block.timestamp > actualDurationInMilliseconds) {\n            return 0; // meaning the time has elapsed\n        } else {\n            return actualDurationInMilliseconds - block.timestamp; // return remaining time\n        }\n    }\n\n    /// @notice get account balance\n    /// @return the current account balance\n    function balance() public view returns (uint256) {\n        return _accounts[msg.sender].balance; // return balance\n    }\n\n    /**\n     * @notice withdraw saved funds if duration has elapsed\n     * @param _amount amount to withdraw\n     * Note: if account owner is withdrawing everything, the account details and the deposit history will be cleared as well to mark an account closure\n     */\n    function withdraw(uint256 _amount) public alreadyRegistered {\n        \n        Account memory acct = _accounts[msg.sender]; // get account\n        uint256 timeLeft_ = timeLeft(); // get time left\n\n        if(timeLeft_ > 0) {\n            revert PrematureWithdrawal(acct.duration, timeLeft_); // there's still time left before the account owner can start withdrawing\n        }\n\n        if(acct.balance < _amount) revert InsufficientFunds({_balance: acct.balance, _amountRequested: _amount}); /// revert with error object\n\n        if(_amount == acct.balance) {\n            delete _accounts[msg.sender]; // reset everything if account owner is withdrawing everything\n            delete _depositHistory[msg.sender]; // clear history\n        } else {\n            _accounts[msg.sender].balance -= _amount;\n        }\n\n        payable(msg.sender).transfer(_amount); // transfer to account owner address\n\n        emit Withdraw(msg.sender, _amount); // emit event\n\n    }\n    \n    /// @dev used to ensure that `_value` is not greater than the maximum allowable value for the type of uint256\n    function _ensureValueDoesNotOverflow(uint256 _value) private {\n        require(type(uint256).max > _value);\n    }\n}",
  "sourcePath": "/Users/josh/Bytangle/Practice/Web3.0 & dApps/contracts/MoneySafe.sol/contracts/MoneySafe.sol",
  "compiler": {
    "name": "solc",
    "version": "0.8.16+commit.07a7930e.Emscripten.clang"
  },
  "schemaVersion": "3.4.9",
  "updatedAt": "2022-09-08T21:47:22.152Z",
  "networkType": "ethereum",
  "devdoc": {
    "author": "Edicha Joshua <mredichaj@gmail.com>",
    "errors": {
      "AlreadyRegistered(uint256)": [
        {
          "details": "used with revert when account already exists",
          "params": {
            "_timeRegistered": "the time account was registered"
          }
        }
      ],
      "InsufficientFunds(uint256,uint256)": [
        {
          "details": "use with revert when trying to withdraw amount from balance",
          "params": {
            "_amountRequested": "the amount requested to be withdrawn",
            "_balance": "the actual account remaining"
          }
        }
      ],
      "NotYetRegistered()": [
        {
          "details": "used with revert when trying to save without first registering"
        }
      ],
      "PrematureWithdrawal(uint256,uint256)": [
        {
          "details": "used with revert when an owner wants to withdraw before the duration elapse",
          "params": {
            "_duration": "the period of saving",
            "_timeLeft": "the time left before it elapse"
          }
        }
      ],
      "ZeroException(string)": [
        {
          "details": "used with revert when zero is provided for amounts and days",
          "params": {
            "_msg": "friendly message"
          }
        }
      ]
    },
    "kind": "dev",
    "methods": {
      "balance()": {
        "returns": {
          "_0": "the current account balance"
        }
      },
      "getDepositsDetails()": {
        "returns": {
          "_0": "array of all individual deposit detail"
        }
      },
      "increaseDuration(uint256)": {
        "params": {
          "_days": "the number of days to be added"
        }
      },
      "register(uint256)": {
        "params": {
          "_days": "duration in days"
        }
      },
      "save()": {
        "details": "to use this function, you must be registered and msg.value must not be zero"
      },
      "timeLeft()": {
        "returns": {
          "_0": "the time left. returns 0 if the time has elapsed else return remaining time in milliseconds"
        }
      },
      "timeRegistered()": {
        "returns": {
          "_0": "the timestamp in milliseconds"
        }
      },
      "withdraw(uint256)": {
        "params": {
          "_amount": "amount to withdraw Note: if account owner is withdrawing everything, the account details and the deposit history will be cleared as well to mark an account closure"
        }
      }
    },
    "title": "MoneySafe",
    "version": 1
  },
  "userdoc": {
    "kind": "user",
    "methods": {
      "balance()": {
        "notice": "get account balance"
      },
      "getDepositsDetails()": {
        "notice": "retrieve deposit history"
      },
      "increaseDuration(uint256)": {
        "notice": "increase the duration"
      },
      "register(uint256)": {
        "notice": "register an account"
      },
      "save()": {
        "notice": "deposit amount into account"
      },
      "timeLeft()": {
        "notice": "get the time left before the account can withdraw"
      },
      "timeRegistered()": {
        "notice": "get the time of registration"
      },
      "withdraw(uint256)": {
        "notice": "withdraw saved funds if duration has elapsed"
      }
    },
    "notice": "Save your funds for a period of time and be able to withdraw after the period has elapsed. Fully autonomous",
    "version": 1
  }
}